{
  "contractName": "Announcement",
  "abi": [
    {
      "inputs": [
        {
          "internalType": "string",
          "name": "_message",
          "type": "string"
        }
      ],
      "stateMutability": "nonpayable",
      "type": "constructor"
    },
    {
      "anonymous": false,
      "inputs": [
        {
          "indexed": false,
          "internalType": "string",
          "name": "reason",
          "type": "string"
        }
      ],
      "name": "ErrorLog",
      "type": "event"
    },
    {
      "inputs": [],
      "name": "message",
      "outputs": [
        {
          "internalType": "string",
          "name": "",
          "type": "string"
        }
      ],
      "stateMutability": "view",
      "type": "function",
      "constant": true
    },
    {
      "inputs": [],
      "name": "owner",
      "outputs": [
        {
          "internalType": "address",
          "name": "",
          "type": "address"
        }
      ],
      "stateMutability": "view",
      "type": "function",
      "constant": true
    },
    {
      "inputs": [
        {
          "internalType": "string",
          "name": "_message",
          "type": "string"
        }
      ],
      "name": "setMessage",
      "outputs": [],
      "stateMutability": "nonpayable",
      "type": "function"
    }
  ],
  "bytecode": "0x60806040523480156200001157600080fd5b5060405162000e5138038062000e51833981810160405281019062000037919062000224565b8060009081620000489190620004c0565b5033600160006101000a81548173ffffffffffffffffffffffffffffffffffffffff021916908373ffffffffffffffffffffffffffffffffffffffff16021790555050620005a7565b6000604051905090565b600080fd5b600080fd5b600080fd5b600080fd5b6000601f19601f8301169050919050565b7f4e487b7100000000000000000000000000000000000000000000000000000000600052604160045260246000fd5b620000fa82620000af565b810181811067ffffffffffffffff821117156200011c576200011b620000c0565b5b80604052505050565b60006200013162000091565b90506200013f8282620000ef565b919050565b600067ffffffffffffffff821115620001625762000161620000c0565b5b6200016d82620000af565b9050602081019050919050565b60005b838110156200019a5780820151818401526020810190506200017d565b60008484015250505050565b6000620001bd620001b78462000144565b62000125565b905082815260208101848484011115620001dc57620001db620000aa565b5b620001e98482856200017a565b509392505050565b600082601f830112620002095762000208620000a5565b5b81516200021b848260208601620001a6565b91505092915050565b6000602082840312156200023d576200023c6200009b565b5b600082015167ffffffffffffffff8111156200025e576200025d620000a0565b5b6200026c84828501620001f1565b91505092915050565b600081519050919050565b7f4e487b7100000000000000000000000000000000000000000000000000000000600052602260045260246000fd5b60006002820490506001821680620002c857607f821691505b602082108103620002de57620002dd62000280565b5b50919050565b60008190508160005260206000209050919050565b60006020601f8301049050919050565b600082821b905092915050565b600060088302620003487fffffffffffffffffffffffffffffffffffffffffffffffffffffffffffffffff8262000309565b62000354868362000309565b95508019841693508086168417925050509392505050565b6000819050919050565b6000819050919050565b6000620003a16200039b62000395846200036c565b62000376565b6200036c565b9050919050565b6000819050919050565b620003bd8362000380565b620003d5620003cc82620003a8565b84845462000316565b825550505050565b600090565b620003ec620003dd565b620003f9818484620003b2565b505050565b5b81811015620004215762000415600082620003e2565b600181019050620003ff565b5050565b601f82111562000470576200043a81620002e4565b6200044584620002f9565b8101602085101562000455578190505b6200046d6200046485620002f9565b830182620003fe565b50505b505050565b600082821c905092915050565b6000620004956000198460080262000475565b1980831691505092915050565b6000620004b0838362000482565b9150826002028217905092915050565b620004cb8262000275565b67ffffffffffffffff811115620004e757620004e6620000c0565b5b620004f38254620002af565b6200050082828562000425565b600060209050601f83116001811462000538576000841562000523578287015190505b6200052f8582620004a2565b8655506200059f565b601f1984166200054886620002e4565b60005b8281101562000572578489015182556001820191506020850194506020810190506200054b565b868310156200059257848901516200058e601f89168262000482565b8355505b6001600288020188555050505b505050505050565b61089a80620005b76000396000f3fe608060405234801561001057600080fd5b50600436106100415760003560e01c8063368b8772146100465780638da5cb5b14610062578063e21f37ce14610080575b600080fd5b610060600480360381019061005b91906103a4565b61009e565b005b61006a610196565b604051610077919061042e565b60405180910390f35b6100886101bc565b60405161009591906104c8565b60405180910390f35b3373ffffffffffffffffffffffffffffffffffffffff16600160009054906101000a900473ffffffffffffffffffffffffffffffffffffffff1673ffffffffffffffffffffffffffffffffffffffff1614610183577ffe46ad7cf507184ab42d7a2576647d779ff7bc7f831bfbead75fbe056c1adb636040516101209061055c565b60405180910390a13373ffffffffffffffffffffffffffffffffffffffff16600160009054906101000a900473ffffffffffffffffffffffffffffffffffffffff1673ffffffffffffffffffffffffffffffffffffffff161461018257600080fd5b5b80600090816101929190610792565b5050565b600160009054906101000a900473ffffffffffffffffffffffffffffffffffffffff1681565b600080546101c9906105ab565b80601f01602080910402602001604051908101604052809291908181526020018280546101f5906105ab565b80156102425780601f1061021757610100808354040283529160200191610242565b820191906000526020600020905b81548152906001019060200180831161022557829003601f168201915b505050505081565b6000604051905090565b600080fd5b600080fd5b600080fd5b600080fd5b6000601f19601f8301169050919050565b7f4e487b7100000000000000000000000000000000000000000000000000000000600052604160045260246000fd5b6102b182610268565b810181811067ffffffffffffffff821117156102d0576102cf610279565b5b80604052505050565b60006102e361024a565b90506102ef82826102a8565b919050565b600067ffffffffffffffff82111561030f5761030e610279565b5b61031882610268565b9050602081019050919050565b82818337600083830152505050565b6000610347610342846102f4565b6102d9565b90508281526020810184848401111561036357610362610263565b5b61036e848285610325565b509392505050565b600082601f83011261038b5761038a61025e565b5b813561039b848260208601610334565b91505092915050565b6000602082840312156103ba576103b9610254565b5b600082013567ffffffffffffffff8111156103d8576103d7610259565b5b6103e484828501610376565b91505092915050565b600073ffffffffffffffffffffffffffffffffffffffff82169050919050565b6000610418826103ed565b9050919050565b6104288161040d565b82525050565b6000602082019050610443600083018461041f565b92915050565b600081519050919050565b600082825260208201905092915050565b60005b83811015610483578082015181840152602081019050610468565b60008484015250505050565b600061049a82610449565b6104a48185610454565b93506104b4818560208601610465565b6104bd81610268565b840191505092915050565b600060208201905081810360008301526104e2818461048f565b905092915050565b7f43616e6e6f74206368616e67652c20596f7520617265206e6f7420746865206f60008201527f776e657200000000000000000000000000000000000000000000000000000000602082015250565b6000610546602483610454565b9150610551826104ea565b604082019050919050565b6000602082019050818103600083015261057581610539565b9050919050565b7f4e487b7100000000000000000000000000000000000000000000000000000000600052602260045260246000fd5b600060028204905060018216806105c357607f821691505b6020821081036105d6576105d561057c565b5b50919050565b60008190508160005260206000209050919050565b60006020601f8301049050919050565b600082821b905092915050565b60006008830261063e7fffffffffffffffffffffffffffffffffffffffffffffffffffffffffffffffff82610601565b6106488683610601565b95508019841693508086168417925050509392505050565b6000819050919050565b6000819050919050565b600061068f61068a61068584610660565b61066a565b610660565b9050919050565b6000819050919050565b6106a983610674565b6106bd6106b582610696565b84845461060e565b825550505050565b600090565b6106d26106c5565b6106dd8184846106a0565b505050565b5b81811015610701576106f66000826106ca565b6001810190506106e3565b5050565b601f82111561074657610717816105dc565b610720846105f1565b8101602085101561072f578190505b61074361073b856105f1565b8301826106e2565b50505b505050565b600082821c905092915050565b60006107696000198460080261074b565b1980831691505092915050565b60006107828383610758565b9150826002028217905092915050565b61079b82610449565b67ffffffffffffffff8111156107b4576107b3610279565b5b6107be82546105ab565b6107c9828285610705565b600060209050601f8311600181146107fc57600084156107ea578287015190505b6107f48582610776565b86555061085c565b601f19841661080a866105dc565b60005b828110156108325784890151825560018201915060208501945060208101905061080d565b8683101561084f578489015161084b601f891682610758565b8355505b6001600288020188555050505b50505050505056fea2646970667358221220fd0ea1e9d21db1f98e6acde660f36ca70e994df963eea3d4f206fde23063e67464736f6c63430008110033",
  "immutableReferences": {},
  "source": "// SPDX-License-Identifier: MIT\npragma solidity >=0.4.22 <0.9.0;\n\ncontract Announcement {\n  string public message;\n  address public owner;\n  event ErrorLog(string reason);\n\n  constructor(string memory _message) {\n    message = _message;\n    owner = msg.sender;\n  }\n\n  function setMessage(string memory _message) public {\n    if(owner!=msg.sender) {\n      emit ErrorLog(\"Cannot change, You are not the owner\");\n      require(owner==msg.sender);\n    }\n    message = _message;\n  }\n\n}\n",
  "sourcePath": "C:\\Users\\mayank.choudhary\\Desktop\\SolidityCode\\contracts\\Announcement.sol",
  "compiler": {
    "name": "solc",
    "version": "0.8.17+commit.8df45f5f.Emscripten.clang"
  },
  "schemaVersion": "3.4.10",
  "updatedAt": "2023-02-12T14:20:52.852Z",
  "networkType": "ethereum",
  "devdoc": {
    "kind": "dev",
    "methods": {},
    "version": 1
  },
  "userdoc": {
    "kind": "user",
    "methods": {},
    "version": 1
  }
}